{
  "contractName": "DaiFaucet",
  "abi": [
    {
      "inputs": [],
      "name": "withdrawDai",
      "outputs": [],
      "stateMutability": "nonpayable",
      "type": "function"
    }
  ],
  "bytecode": "0x6080604052736b175474e89094c44da98b954eedeac495271d0f6000806101000a81548173ffffffffffffffffffffffffffffffffffffffff021916908373ffffffffffffffffffffffffffffffffffffffff16021790555034801561006457600080fd5b50610235806100746000396000f3fe608060405234801561001057600080fd5b506004361061002b5760003560e01c8063e4b6f79914610030575b600080fd5b61003861003a565b005b60008054906101000a900473ffffffffffffffffffffffffffffffffffffffff1673ffffffffffffffffffffffffffffffffffffffff1663a9059cbb3360646040518363ffffffff1660e01b815260040161009692919061016c565b6020604051808303816000875af11580156100b5573d6000803e3d6000fd5b505050506040513d601f19601f820116820180604052508101906100d991906101d2565b50565b600073ffffffffffffffffffffffffffffffffffffffff82169050919050565b6000610107826100dc565b9050919050565b610117816100fc565b82525050565b6000819050919050565b6000819050919050565b6000819050919050565b600061015661015161014c8461011d565b610131565b610127565b9050919050565b6101668161013b565b82525050565b6000604082019050610181600083018561010e565b61018e602083018461015d565b9392505050565b600080fd5b60008115159050919050565b6101af8161019a565b81146101ba57600080fd5b50565b6000815190506101cc816101a6565b92915050565b6000602082840312156101e8576101e7610195565b5b60006101f6848285016101bd565b9150509291505056fea2646970667358221220bb9cb06af124e9437a89711f8fd34635a3f2a3693a62a3d3e660e966c3aed1b964736f6c63430008100033",
  "immutableReferences": {},
  "source": "// SPDX-License-Identifier: MIT\npragma solidity ^0.8.0;\n\n// Defining the interface (an incomplete smart contract) of the further used functions\ninterface DaiToken {\n    function transfer(address to, uint amount) external returns(bool);\n}\n\ncontract DaiFaucet {\n    // Recieve the dai-tokens to be used for the faucet\n    // receive() external payable {}\n\n    // Reference to the Dai token created and stored in a state variable\n    DaiToken daiToken = DaiToken(0x6B175474E89094C44Da98b954EedeAC495271d0F);\n\n    // function to handle the withdrawls (transfer Dai to the caller)\n    function withdrawDai() public {\n        // payable(msg.sender).transfer(withdraw_amount);\n        daiToken.transfer(msg.sender, 100);\n    }\n}",
  "sourcePath": "/home/njwardhan/Desktop/Codes/Mainnet-Fork/contracts/DaiFaucet.sol",
  "compiler": {
    "name": "solc",
    "version": "0.8.16+commit.07a7930e.Emscripten.clang"
  },
  "schemaVersion": "3.4.3",
  "updatedAt": "2022-09-01T20:11:02.775Z",
  "networkType": "ethereum",
  "devdoc": {
    "kind": "dev",
    "methods": {},
    "version": 1
  },
  "userdoc": {
    "kind": "user",
    "methods": {},
    "version": 1
  }
}